:100000000C94A8000C940C150C94E5140C94D000DE
:100010000C94D0000C94D0000C948B150C94D00050
:100020000C94D0000C94D0000C94D0000C94D00010
:100030000C94D0000C94D0000C94D0000C94D00000
:100040000C949B140C94D0000C9459150C943315FB
:100050000C94D0000C94D0000C94D0000C94D000E0
:100060000C94D0000C94D0006364696E6F7073754B
:1000700078585B00322E332E310A00207C5F5C2FD3
:10008000602C0A0702200220B287100340012000E2
:100090002402221002220202200222002220020256
:1000A000202227101341010101032220304020307B
:1000B0005203402214020310522402217101001045
:1000C000101210122210100224010103220300203A
:1000D000010100322037121001213226012840325E
:1000E000221210121222432224121001222470C163
:1000F00022240F0F0000000023002600290000002A
:100100000000240027002A0000000000250028002D
:100110002B00040404040404040402020202020288
:1001200003030303030301020408102040800102BB
:10013000040810200102040810200000000800023A
:100140000100000304070000000000000000AA15E1
:1001500011241FBECFEFD8E0DEBFCDBF11E0A0E07D
:10016000B1E0ECEAFDE302C005900D92AE38B107B4
:10017000D9F724E0AEE8B1E001C01D92A33CB2077C
:10018000E1F710E0C8EAD0E004C02197FE010E9428
:10019000DD1AC73AD107C9F70E9448160C94D41E3D
:1001A0000C940000942FE7E2F3E03091D801318302
:1001B0008283668325834481487F492B477E44831D
:1001C000CF010895833081F028F4813099F0823096
:1001D000A9F008958730A9F08830C9F08430B1F4CF
:1001E000809180008F7D03C0809180008F77809305
:1001F0008000089584B58F7784BD089584B58F7D80
:10020000FBCF8091B0008F778093B00008958091EC
:10021000B0008F7DF9CF1F93CF93DF93282F30E06D
:10022000F901E65CFE4F8491F901EA5DFE4FD4913D
:10023000F901EE5EFE4FC491CC23A9F0162F811177
:100240000E94E200EC2FF0E0EE0FFF1FE85FFE4F90
:10025000A591B4918FB7F894EC91111108C0D09585
:10026000DE23DC938FBFDF91CF911F910895DE2BAA
:10027000F8CFCF93DF9390E0FC01EA5DFE4F24912D
:100280008E5E9E4FFC0184918823C9F090E0880F18
:10029000991FFC01E250FF4FA591B491FC01E85F6A
:1002A000FE4FC591D49161110DC09FB7F8948C9108
:1002B000209582238C938881282328839FBFDF91F8
:1002C000CF910895623051F49FB7F8943C91822FFA
:1002D000809583238C93E8812E2BEFCF8FB7F894F2
:1002E000EC912E2B2C938FBFEACF862F642F0C948A
:1002F00039011F93CF93DF93182FEB0161E00E9428
:100300003901209739F460E0812FDF91CF911F915F
:100310000C940B01CF3FD10511F461E0F5CFE12F33
:10032000F0E0E65CFE4FE491E33031F140F4E1307F
:10033000B1F0E230E1F0C038D1057CF7E4CFE7302E
:1003400029F1E83059F1E430B1F780918000806202
:1003500080938000D0938B00C0938A0004C084B542
:10036000806884BDC7BDDF91CF911F91089584B58A
:10037000806284BDC8BDF7CF809180008068809383
:100380008000D0938900C0938800EDCF8091B000A9
:1003900080688093B000C093B300E5CF8091B00037
:1003A00080628093B000C093B400DDCF3FB7F89473
:1003B0008091C2019091C301A091C401B091C50187
:1003C00026B5A89B05C02F3F19F00196A11DB11DB0
:1003D0003FBFBA2FA92F982F8827BC01CD01620FEC
:1003E000711D811D911D43E0660F771F881F991FA6
:1003F0004A95D1F708958F929F92AF92BF92CF9274
:10040000DF92EF92FF926B017C010E94D6014B01BB
:100410005C01C114D104E104F104B9F00E94D601D9
:10042000681979098A099B09683E7340810591051D
:1004300080F321E0C21AD108E108F10888EE880EA5
:1004400083E0981EA11CB11CE4CFFF90EF90DF90D9
:10045000CF90BF90AF909F908F9008952FB7F89452
:100460006091BE017091BF018091C0019091C10166
:100470002FBF08950895AF92BF92CF92DF92EF926F
:10048000FF920F931F93CF93DF936C017B018B013E
:10049000040F151FEB015E01AE18BF08C017D1078E
:1004A00059F06991D601ED91FC910190F081E02D18
:1004B000C6010995892B79F7C501DF91CF911F916D
:1004C0000F91FF90EF90DF90CF90BF90AF90089585
:1004D000FC01538D448D252F30E0842F90E0821B4A
:1004E000930B541710F0CF96089501970895FC01CF
:1004F000918D828D981761F0A28DAE0FBF2FB11D27
:100500005D968C91928D9F5F9F73928F90E008957E
:100510008FEF9FEF0895FC01918D828D981731F038
:10052000828DE80FF11D858D90E008958FEF9FEF8C
:100530000895FC01918D228D892F90E0805C9F4F62
:10054000821B91098F73992708958CED91E00E9489
:10055000990221E0892B09F420E0822F0895FC0103
:10056000A48DA80FB92FB11DA35ABF4F2C91848D14
:1005700090E001968F739927848FA689B7892C9371
:10058000A089B1898C91837080648C93938D848DC4
:10059000981306C00288F389E02D80818F7D8083C7
:1005A0000895EF92FF920F931F93CF93DF93EC0187
:1005B00081E0888F9B8D8C8D98131AC0E889F9890A
:1005C000808185FF15C09FB7F894EE89FF8960830D
:1005D000E889F98980818370806480839FBF81E08E
:1005E00090E0DF91CF911F910F91FF90EF900895D0
:1005F000F62E0B8D10E00F5F1F4F0F731127E02EAB
:100600008C8D8E110CC00FB607FCFACFE889F989E2
:10061000808185FFF5CFCE010E94AF02F1CFEB8D37
:10062000EC0FFD2FF11DE35AFF4FF0829FB7F894B6
:100630000B8FEA89FB8980818062CFCFCF93DF93D4
:10064000EC01888D8823B9F0AA89BB89E889F989EA
:100650008C9185FD03C0808186FD0DC00FB607FC1F
:10066000F7CF8C9185FFF2CF808185FFEDCFCE0152
:100670000E94AF02E9CFDF91CF91089580E090E032
:10068000892B29F00E94A50281110C940000089585
:10069000CF93DF93FC01218530E0F901E65CFE4F4A
:1006A0008491F901EA5DFE4FD491F901EE5EFE4FAF
:1006B000C491CC2379F081110E94E200EC2FF0E08C
:1006C000EE0FFF1FEC50FF4FA591B491EC91ED237D
:1006D00081E009F480E08170DF91CF9108951F934C
:1006E000CF93DF93EC01162F62E0812F0E94390136
:1006F00019871886CE010E944803882319F088853F
:10070000836088870E942E026A837B838C839D830B
:10071000DF91CF911F910895CF92DF92EF92FF92D8
:100720001F93CF93DF93EC0188858B7F8887CE0161
:100730000E944803182F8885869581701817B1F09C
:100740000E942E026A837B838C839D83888592E03E
:1007500089278887888582FB882780F9DF91CF9158
:100760001F91FF90EF90DF90CF9008950E942E028E
:10077000CA80DB80EC80FD80AB01BC014C195D09B7
:100780006E097F098E819F81B0E0A0E0481759076C
:100790006A077B07F8F2888581701817D9F20E94E2
:1007A0002E026A837B838C839D83888591E08927D1
:1007B000846088870E942E026A877B878C879D874A
:1007C000C9CFCF93CFB7F8948091BC01811127C0D6
:1007D000ECE1F1E08491E0E3F1E09491E82FF0E0C6
:1007E000EE0FFF1FE250FF4FA591B491EC91E9236A
:1007F00021F461E08AE00E940B0161E08AE00E943E
:1008000039018CB580618CBD8CB580648CBD61E094
:100810008DE00E94390161E08BE00E9439018091F6
:10082000BC018F5F8093BC01CFBFCF9108959FB76C
:10083000F8942091D7018091BB01213019F48DBB30
:100840009FBF08958FBF0895CF92DF92EF92FF92DE
:100850000F931F93CF93DF93D0E0C0E0062F10E0FB
:10086000E82EF12CC017D1072CF5D12CC12CCE14B9
:10087000DF04C4F461E088E00E940B0164E170E0F1
:1008800080E090E00E94FB0160E088E00E940B01A4
:1008900064E670E080E090E00E94FB018FEFC81AF0
:1008A000D80AE5CF64E670E080E090E00E94FB01AA
:1008B0002196D8CFDF91CF911F910F91FF90EF90AC
:1008C000DF90CF900895FC0184818F7180648483D0
:1008D000838187708061838370876783CF010895E8
:1008E000FC01838187708860838384818F7180623B
:1008F00084836783CF010895E091C601F091C70119
:10090000309721F00280F381E02D099408950F9330
:100910001F930E942E020091C8011091C9012091DD
:10092000CA013091CB01601B710B820B930B1F919D
:100930000F9108959C018091C6019091C701821783
:100940009307F1F09091D0019F719093D001309373
:10095000C7012093C601E091C601F091C70130970D
:1009600021F00190F081E02D09950E942E02609304
:10097000C8017093C9018093CA019093CB01089577
:100980008091D001805E8093D001E5CF0F931F93BB
:100990000E9487042091D1012077203779F000E16F
:1009A00017E220E030E0061717072807390758F448
:1009B00080E391E01F910F910C949A0400E61AEEE7
:1009C00020E030E0F0CF1F910F9108958091D10188
:1009D0008F708B3020F084E191E00C949A0408959C
:1009E0008091D00184608093D0018091D101807882
:1009F0008093D101E091B601F091B701309709F0F1
:100A000009940895CF93C091D201CF3FA1F00E94E5
:100A10002E026093CC017093CD018093CE01909310
:100A2000CF018091DA01C813C093DA0180E191E02F
:100A3000CF910C949A040E948704613D7740810510
:100A4000910568F08091D001803618F48CE091E037
:100A5000EFCF877F8093D00184E191E0E9CFCF9100
:100A600008958091D8018F3F21F08CE091E00C94A3
:100A70009A040E948704613D77408105910550F0FA
:100A80008091D001803618F488E091E0F0CF89E1C0
:100A900091E0EDCF08950E948704613D7740810584
:100AA000910520F48091D00181FF17C08091D90178
:100AB0008F3F49F08091D0018E7F8093D00188E0F4
:100AC00091E00C949A048091D001803618F484E16E
:100AD00091E0F7CF89E191E0F4CF08958EBD000059
:100AE0000DB407FEFDCF8EB508952091D7012223C6
:100AF00081F03FB7F8942091D701213069F42DB3EC
:100B00002093BB014DB320919101209524232DBB4F
:100B10003FBF8CBD9DBD08953093BB01FACFCF93ED
:100B2000DF938CB5C8EBD4E08B838DB58C838D813E
:100B30009E810E94750560E08881DF91CF910C94C1
:100B40000B0161E08091B8040E940B018091D701F4
:100B500081110E9417048091BB048CBD8091BC045C
:100B60008DBD0895CF930E948F0585E00E946E058C
:100B700080E00E946E05C82F0E94A1058C2F817015
:100B8000CF910895CF93DF93C82F662331F060E0B3
:100B900086E00E94C2050E94A1050E948F0585E0A3
:100BA0000E946E0580E00E946E05D82F0E94A1056C
:100BB000D0FDF3CF0E948F058C2FDF91CF910C9445
:100BC0006E054F925F926F927F928F929F92AF923B
:100BD000BF92CF92DF92EF92FF920F931F93CF932A
:100BE000DF932B013C014A01E9019B01332780E09F
:100BF00091E0821B930BF12CE12C8E018C179D0749
:100C000008F48C0161E082E00E94C205862D0E94FA
:100C10006E05852D0E946E05842D0E946E0554017F
:100C2000AE0CBF1C6501F60181916F010E946E053B
:100C3000C6018A199B0980179107A8F30E94A10594
:100C4000400E511E611C711CE00EF11EC01BD10B29
:100C500080E091E091F6DF91CF911F910F91FF908D
:100C6000EF90DF90CF90BF90AF909F908F907F904C
:100C70006F905F904F9008950F931F93CF93DF93E2
:100C8000EC0188819981009759F02A813B812617D0
:100C9000370730F081E0DF91CF911F910F910895D8
:100CA0008B016F5F7F4F0E94E31A009759F0998381
:100CB00088831B830A832C813D81232B59F7FC01F8
:100CC0001082E8CF80E0E7CFCF93DF93EC018881FB
:100CD0009981009711F00E94F617198218821D82DF
:100CE0001C821B821A82DF91CF9108950F931F936C
:100CF000CF93DF93EC010C811D810F5F1F4FB80173
:100D00000E943C06882391F0288139818C819D8145
:100D100069E571E0820F931F0E94B61B1D830C834F
:100D2000CE01DF91CF911F910F910895CE010E94C6
:100D30006406F6CFCF92DF92EF92FF920F931F934C
:100D4000CF93DF93CDB7DEB762970FB6F894DEBFCF
:100D50000FBECDBF8C01CB01F8011182108213822E
:100D60001282158214824AE09E012F5F3F4F690173
:100D7000B9010E94C418F60101900020E9F73197EB
:100D80007F01EC18FD08B701C8010E943C068111E3
:100D900012C0C8010E94640662960FB6F894DEBFC6
:100DA0000FBECDBFDF91CF911F910F91FF90EF90BC
:100DB000DF90CF900895F801F582E482B60180813A
:100DC00091810E94B61BE8CFEF92FF920F931F9381
:100DD000CF93DF93EC01FB01E080F180E114F1049B
:100DE00011F10481158101151105A9F08C819D81F6
:100DF000080F191FB801CE010E943C06882399F004
:100E0000288139818C819D81B701820F931F0E94B7
:100E1000B61B1D830C83CE01DF91CF911F910F91E3
:100E2000FF90EF900895CE010E946406F4CFFC017C
:100E3000808191810C94F617EF92FF920F931F938C
:100E4000CF93DF93EC01198218821B821A821D82D4
:100E50001C828617970719F1FB010081118101158A
:100E60001105E9F0E480F580B7010E943C0681118C
:100E700009C0CE01DF91CF911F910F91FF90EF90AC
:100E80000C946406FD82EC82B80188819981DF911F
:100E9000CF911F910F91FF90EF900C94B61BDF91B3
:100EA000CF911F910F91FF90EF900895BF92CF9235
:100EB000DF92EF92FF920F931F93CF93DF93C82F90
:100EC0007B01042FB22E80E590E00E9475052A98E0
:100ED00080E190E00197F1F78C2F0E946E05182FAA
:100EE000E7010150B0F0BB2051F08FEF0E946E057A
:100EF000182FE114F104A9F388832196F2CF6E0133
:100F00008FEFC81AD80A88810E946E05182FE60153
:100F1000E8CF2A9A8091D70181110E94170480E1BD
:100F200090E00197F1F7812FDF91CF911F910F9101
:100F3000FF90EF90DF90CF90BF900895CF93DF9315
:100F40001F92CDB7DEB7698320E041E0BE016F5F3D
:100F50007F4F0E9456070F90DF91CF9108958091A7
:100F6000D101982F9077903759F0982F92959F70D4
:100F70009F5F97709295907F8F78892B8093D10196
:100F80008091D0018B7F8F7E8093D00129986CE374
:100F900080E20C949E076FE380E20E949E076091BE
:100FA00034016F3F19F08AE20E949E07299A089542
:100FB00021E041E070E060E00C94560780918F01E1
:100FC00090919001892B59F087E10E94D80780FD0C
:100FD0000AC0E0918F01F09190010995F5CF60E48E
:100FE00087E20C949E07089520E040E070E060E006
:100FF0000C9456070F931F93CF938C0121E041E08F
:1010000070E060E080E60E945607C82F813220F031
:1010100082EE0E94F407C0E021E04C2FB80181E687
:101020000E94560760E487E20E949E078C2FCF91B2
:101030001F910F910895CF93DF932FB7F89490915C
:10104000B7048091B3042FBF981709F454C08FB729
:10105000F8943FB7F8942091B7049091B3043FBF40
:10106000291317C08FBFD0E0C0E0CE0101960E94C7
:10107000FA0788832FB7F8943FB7F8949091B70494
:101080008091B3043FBF981311C02FBFDF91CF9160
:1010900008959091B604C091B404D091B50421E2B2
:1010A000929FC00DD11D11248FBFDFCF8091B60458
:1010B000A091B404B091B50491E2899FA00DB11D37
:1010C0001124AC17BD0731F081E2FE0101900D92B1
:1010D0008A95E1F78091B60490E001966091B3049F
:1010E00070E00E94B51A8093B6048091B7048F5FB8
:1010F0008093B704CACF90E080E00E94FA07809105
:101100008E018F3F19F280918E018F5F80938E0147
:10111000BDCFCF93C82F8093D8018F3F51F08093DC
:10112000340163E082E20E949E0761E081E20E9456
:101130009E070E94CB076C2F90E080E00E94C419AC
:1011400081E0CF910895CF938FB7F8942BE138E0E9
:101150003093900120938F018FBF5298219A229A49
:1011600029982A9A0E94E1039FB7F89480919101EF
:101170008160809391018091D701811103C081E04A
:101180008093D7019FBF8EED97E0909336018093B7
:101190003501809169008C7F826080936900E89AB4
:1011A00029986EE380E20E949E0784E293E2019711
:1011B000F1F763E083E20E949E076FE584E20E94FC
:1011C0009E076CE485E20E949E0767E286E20E9429
:1011D0009E0764E08DE30E949E078DE10E94D80780
:1011E000843041F063E780E50E949E0764E08DE370
:1011F0000E949E0786E00E94D807873209F04DC002
:1012000085E00E94D8078C3409F047C062E082E292
:101210000E949E0760E081E20E949E0763E08CE3EB
:101220000E949E07CFEFC093030120E045E063E0FA
:1012300071E08BE20E94560720E045E063E071E038
:101240008AE20E94560720E045E063E071E080E317
:101250000E94560782EE0E94F40781EE0E94F40776
:1012600060E787E20E949E078091D00180618093B1
:10127000D0018091DB018E7F8093DB018091D801CA
:101280008F3F19F484E191E00AC09FEF980F9E3FD1
:1012900048F40E9489088111F5CF89E191E0CF914E
:1012A0000C949A04C093D801F8CFE0EDF1E080816E
:1012B000877F8F7E80831092CC011092CD01109297
:1012C000CE011092CF010E942E026093990170937B
:1012D0009A0180939B0190939C0144E050E070E060
:1012E00060E088ED91E00C949C191F93CF93DF93FD
:1012F00061E08EE00E94390161E08FE00E943901D7
:1013000061E080E10E94390161E083E00E943901DF
:1013100061E085E00E94390161E086E00E943901C8
:1013200061E088E00E94390161E170E089E193E0C9
:101330000E946F03C4E1D0E0D0932003C0931F0349
:1013400062E170E08BE093E00E946F03D0931203A0
:10135000C093110363E170E08DEF92E00E946F0390
:10136000D0930403C09303038EE991E00E94AC196B
:10137000C82FD0E0D0939E01C0939D018FE991E0EA
:101380000E94AC1990E09093AD018093AC0124973A
:1013900014F4029754F081E090E090939E018093C2
:1013A0009D011092AD011092AC0182EA91E00E9481
:1013B000AC1911E0811101C010E01093BA0183EA69
:1013C00091E00E94AC19D1E0811101C0D0E0D0932E
:1013D000B90184EA91E00E94AC19C1E0811101C019
:1013E000C0E0C093B801612F8EE00E940B016D2F09
:1013F0008FE00E940B016C2F80E1DF91CF911F9154
:101400000C940B01EF92FF920F931F93CF93DF93F6
:101410007C01FC01C2818091D00180FF72C080E01C
:10142000CF3F09F067C0DFEF8091D801F7018083DB
:101430004381C0E242FD05C0469546954695C7E00A
:10144000C40F1091DB01012F0170299880E091E019
:101450000197F1F76EE380E20E949E0784EC90E032
:101460000197F1F76D2F8AE20E949E076D2F80E3AE
:101470000E949E0781EE0E94F407DF3F11F080EA90
:10148000011180EB4C2FC13208F040E220E0B7019F
:101490000E945607299AF12CE12C8FEF0E94F40745
:1014A000C82F807321F4F1E0EF1AF108B1F7299801
:1014B00060E387E20E949E07C4FF03C081EE0E94A2
:1014C000F4070E94CB07C5FD11E081E0DF3F09F082
:1014D00080E01170812B9091D9019D130BC09091E8
:1014E000D101811125C021E0290F2F70907F922B0F
:1014F0009093D101DF91CF911F910F91FF90EF90C9
:101500000895D091D901CC2309F48ECFCF3F09F4AF
:101510008ACF8C2F90E003960E94AC198F3F31F454
:10152000F70180818D1380CFDC2F7ECFD82F7CCF29
:10153000907FDECF2091D00122FD0C94020A80E042
:101540000895FC018091D80181839481907F9160FE
:1015500094838091D60180FF03C0CF010C949A0A36
:1015600080E008958FEF8093D201E0EDF1E080817B
:101570008860808328E143E06FEF80E00E94D20022
:1015800061E00E9470040C94020A0F931F93CF93A2
:10159000DF93EC01E0E06115710551F0FB01019072
:1015A0000020E9F73197E61BF70BE931F10500F56B
:1015B0000E2F10E08B818770980193E0220F331F6C
:1015C0009A95E1F7822B8B838C818F718C83EE232C
:1015D00029F0A801CE0107960E94BD1BFE01E00F75
:1015E000F11F1782CE01DF91CF911F910F910895C6
:1015F000E9E1DECF1F93CF93DF93182F262FEA0167
:1016000040E0682F80E00E94D2001F3F11F4CBE53C
:10161000D1E0BE010E94C50ADF91CF911F910C94C9
:101620009A0A8091D8018F3FB1F40E942E026F3F39
:1016300079F06093180123E043E06091180180E0A5
:101640000E94D2006CE871E00E94C50A0C94020A64
:1016500010921801F0CF0895E0EDF1E08081897FCC
:1016600081608083E8EDF1E08FEF8283818327E062
:1016700043E06FEF0E94D2006CE871E00E94C50A5F
:101680000C94020AFC0124812295269527702130B2
:1016900011F487810895211104C007960E947F18D4
:1016A000089580E00895EF92FF920F931F93CF93D8
:1016B000DF93CDB7DEB768970FB6F894DEBF0FBEE5
:1016C000CDBF8C01FC018581823089F4F680F7E082
:1016D000FF1669F0C8010E94420B61E070E08111C1
:1016E00002C070E060E08F2D90E00E941D12F801B2
:1016F00085818331A1F48681803589F0823509F4B2
:101700009DC0833509F4A2C0813549F46091BA01C6
:1017100081E0682770E081E590E00E941D12F801E9
:101720008581883109F07DC08681873109F079C0D3
:10173000095F1F4FF80101900020E9F7CF01801BDE
:10174000910B0E945A17F82EE92EB8010E94B61B81
:101750008CEA91E09F938F938DE991E09F938F9313
:1017600081E691E09F938F93EF92FF920E94CC1BB2
:1017700060919D0170919E010FB6F894DEBF0FBE7F
:10178000CDBF6430710584F48091AC019091AD01BE
:10179000029754F48EE991E00E94C4196091AC0163
:1017A0008FE991E00E94C4196091AC017091AD0184
:1017B000CE010D960E949A0660919D0170919E0146
:1017C000CE0101960E949A06BE016F5F7F4FCE0147
:1017D00007960E941C07CE0107960E947606BE015E
:1017E000635F7F4F0E94E406BC01CE0143960E94D6
:1017F0001C07CE0107960E941707CE0101960E9492
:101800001707CE010D960E9417076B897C8989E71F
:1018100092E00E94C50A0E94A10ACE0143960E944E
:10182000170768960FB6F894DEBF0FBECDBFDF91E5
:10183000CF911F910F91FF90EF9008956091B901A2
:1018400081E0682770E082E590E067CF6091B801A1
:1018500081E0682770E083E590E05FCF2F923F92B0
:101860004F925F926F927F928F929F92AF92BF92B0
:10187000CF92DF92EF92FF920F931F93CF93DF935C
:10188000CDB7DEB72A970FB6F894DEBF0FBECDBF37
:101890008091D00184FB332430F884FF09C40E9476
:1018A0002E020091990110919A0120919B01309193
:1018B0009C01601B710B820B930B613A7B4B8D403B
:1018C000910598F00E942E026093990170939A01FD
:1018D00080939B0190939C0186E00E94D8078732F9
:1018E00061F189E191E00E949A04B6E0FB2E16E0D6
:1018F000E12E00E0C02E00E0D02E88248A949924A6
:10190000939483E0A82E82E0B82E9FB7F89480913C
:10191000B7049FBF882309F4A6C3FA94FF2009F4F3
:10192000A2C32FB7F8949FB7F8948091B7049FBFD4
:10193000811109C02FBF10E033C085E00E94D80795
:101940008C3479F6D2CF8091B6049091B70460912F
:10195000B30470E0891B990B860F971F0E94B51A7C
:101960006091B4047091B50441E2849F600D711DD3
:1019700011242FBF61157105F1F2FB011191BF0117
:10198000412F50E088E493E00E94AD1B9FB7F8948C
:101990002FB7F8948091B7042FBF81118DC09FBFDE
:1019A00080914B03682E669466946694F9E1F6156F
:1019B00010F4A9E16A2E97E0960D82FD90E2911352
:1019C000A4CF8370823009F0A0CF70904C031091A7
:1019D0004D03009149035090480340904A03809181
:1019E000D901581651F08091D801081731F0802F95
:1019F00090E0652D03960E94C419272D2770722E42
:101A00008091D10180688093D1018091D8014812E2
:101A1000AAC280914B03282F2695269526952A3118
:101A200008F029E148E0249F900111248770822B5F
:101A300080934B03E62DF0E0E85BFC4F178280912A
:101A40004C0383FF15C091E2E8E4F3E0A7E2B3E0C2
:101A500001900D929A95E1F7877F806180932B0327
:101A6000409228030093290387E293E00E949A0A98
:101A700090914C0394FD27C183E078122CC1809192
:101A80004D0321EF280F233008F43FCF1430F1F439
:101A900080914E0390911801891719F08F3F09F03A
:101AA00034CF88E493E00E94420B9FEF980F9E3F53
:101AB00048F40E94890829CF8091B704815080930F
:101AC000B7046DCF8FEF8093D8011FCF1830D9F4B2
:101AD0001091D00110FF19CF88E493E00E94420BCF
:101AE0008F3F09F412CF8F5F8F3F09F40ECF909193
:101AF000DA01891708F009CF11FD07CF8093DA01C9
:101B00000093D90102CF183151F429E143E06FEF7E
:101B1000802F0E94D20061E00E9470041FC0193122
:101B200071F48091D00183FFF0CE877F8093D00144
:101B300088E493E00E94420B8093D201E6CE1E31EE
:101B400009F4E3CE1D3169F42FE143E06FEF80E04B
:101B50000E94D20060E07FEF0E9463040E94020AAC
:101B6000D4CE209149032111B3C08D3059F488E1BE
:101B700098E00FB6F894A895809360000FBE9093FC
:101B80006000FFCF8B3179F488E493E00E94420B30
:101B900091E0811101C090E08091D60190FB80F925
:101BA0008093D601B2CE8630A1F490914F03832D5D
:101BB000992321F081E09D3409F080E08093D501E4
:101BC00041E050E063E071E085ED91E00E94B419DE
:101BD0009CCE833119F40E941E1497CE8231D9F421
:101BE0000E9487042B013C0126E143E06FEF80E077
:101BF0000E94D200FC0184818F71806A848383817A
:101C00008770806283834782508661867286CF01A7
:101C10000E949A0A7ACE8230A1F422E043E06FEF6C
:101C200080E00E94D200FC0184818F71806A8483ED
:101C3000838187708062838387829086A186B28643
:101C4000E6CF8130F9F4C114D10409F45ECE929547
:101C500096959770953059F460914F0370915003A9
:101C600080915103909152030E9400004ECE911139
:101C700005C08FE493E00E949D18F6CF60E070E00D
:101C8000CB01F2CF8A30E1F480914F03833409F025
:101C90003CCE03E010E06FEFC8010E94C4190F5F53
:101CA0001F4F033091E01907B1F72AE043E06FEFCF
:101CB00080E00E94D20067E671E00E94C50AA8CFCA
:101CC0008C3109F422CE88E493E00E94530B1DCEA0
:101CD0008A31C9F71ACEE4E07E12F5CF10914D0398
:101CE000113009F086C080919F0181110ECE48E02D
:101CF00050E06FE473E08EEA91E00E94A01B892B14
:101D000011F388E0EFE4F3E0AEEAB1E001900D9268
:101D10008A95E1F78CB58093BB048DB58093BC04A4
:101D200061E08091B8040E9439010E94E103F0E56E
:101D3000F093BD041093BE040E94A10560E08BEAFD
:101D40000E94C2050E94A1058091B9049091BA0435
:101D5000892B91F561E081E00E94C20580E00E943C
:101D60006E050E94A10561E082E50E94C20580E047
:101D70000E946E0580E00E946E0580E00E946E0564
:101D80000E94A1050E94B2058111FCCF8091B20191
:101D90009091B301909398018093970181E0809393
:101DA0009F01E0929601109292011092930110927D
:101DB000940110929501A9CD0E948F058FE90E9490
:101DC0006E0580E00E946E05082F10E0102F00279E
:101DD00080E00E946E05082B0E94A1058091B90445
:101DE0009091BA048017910709F4B4CF10929F0123
:101DF0008CCD133009F067CF80919F01882309F4BF
:101E000084CD009153031091540360919701709118
:101E10009801CB0101970817190709F076CDE4E086
:101E2000660F771FEA95E1F76650710990E080E050
:101E300020E130E045E553E00E94E1050E94B20553
:101E40008111FCCF1093980100939701012B09F0A9
:101E5000A8CF10929F016AE0462E512C612C712C64
:101E60000FEF1FEF8091B2019091B30154E0880F02
:101E7000991F5A95E1F7B0E0A0E0B301A2014A50E2
:101E8000510961097109481759076A077B0740F52D
:101E900060E083E00E94C205862D0E946E05852DBC
:101EA0000E946E05842D0E946E0580E00E946E05E2
:101EB000282E0E94A105022588E098012170332771
:101EC00016950795232B21F021E0022720EA1227FF
:101ED000815099F74FEF441A540A640A740AC2CF2A
:101EE0008091B4019091B5010817190709F059CFF5
:101EF00048E050E06BE171E08EEA91E00E94B41995
:101F00008091B2019091B30124E0880F991F2A9526
:101F1000E1F726E429832CE42A8328E52B8329E4AE
:101F20002C832DE42D8327E42E832AE32F832A8715
:101F3000988789872AE030E0AE014F5F5F4F60E00D
:101F400070E0CB010E94E1050E94B2058111FCCF37
:101F500088E198E00FB6F894A895809360000FBED2
:101F600090936000FFCF8FEF481264C093E0291375
:101F700046C08091D00182FF26C0173021F58091A4
:101F8000D901081709F4C1CC0E94DA10882309F49A
:101F9000BCCC0E942E026093CC017093CD01809343
:101FA000CE019093CF010E942E027370882799274B
:101FB0000E94FB0128E043E06FEF802F0E94D200D7
:101FC0006091DA01A9CD183009F49FCC1431B9F42D
:101FD0008091D901581213C00E942E027370882775
:101FE00099270E94FB0125E143E06FEF802F0E94BB
:101FF000D2006091D9010E9470040E94020A80916F
:10200000D901581282CC8091D801081709F49BC0DD
:102010008091D00182FF97C088E493E00E94020A79
:10202000E3E07E1609F471CC8091D901581609F4C9
:102030004ACE6BCC8091D00182FF67CCF3E02F13A6
:102040000FC01851123060F488E493E00E94420BF4
:102050008E3F31F061E0680F88E493E00E947004E5
:1020600088E493E07BCD8091D00182FF21C00E9463
:102070002E0220919F012223D9F00091920110910C
:10208000930120919401309195016B017C01C01A5C
:10209000D10AE20AF30A97018601053F11402105A2
:1020A000310530F02091960121111BC010929F0143
:1020B0002A960FB6F894DEBF0FBECDBFDF91CF9149
:1020C0001F910F91FF90EF90DF90CF90BF90AF9056
:1020D0009F908F907F906F905F904F903F902F9048
:1020E000089521502093960160939201709393017B
:1020F0008093940190939501C090AE01D090AF0170
:10210000E090B001F090B101009197011091980119
:102110000150110922E044E06FEF80E00E94D200FC
:10212000FC01838187708063838384818F71806CDD
:102130008483D086C782F286E18614870387CF0125
:102140000E949A0AB5CF83E07812BDCDDECBCF9244
:10215000DF92EF92FF92CF93DF93D82F0E942E024F
:102160006B017C0110924D03C0E00E942E026C199D
:102170007D098E099F09603D77408105910590F4A6
:10218000C11110C0A8950E947C040E942E0C809161
:102190004C038770833049F7C1E080914D038D1364
:1021A000E3CFE3CF8C2FDF91CF91FF90EF90DF90C3
:1021B000CF900895CF92DF92EF92FF92CF930E943B
:1021C0002E02C090CC01D090CD01E090CE01F090D5
:1021D000CF016C197D098E099F0960317742810515
:1021E000910510F481E008C08091D00183FBCC27D9
:1021F000C0F983FF07C080E0CF91FF90EF90DF90A0
:10220000CF9008959091D80191111CC01092D201E5
:102210008091D001877F8093D001C091D201CF3FC0
:1022200051F30E942E026093CC017093CD018093F4
:10223000CE019093CF018091DA018C1799F2C0936F
:10224000DA01D0CF88608093D0018FEF8093D201E4
:1022500028E143E06FEF80E00E94D20061E00E943D
:1022600070040E94020A0E942E026B017C011092EF
:102270004D030E942E026C197D098E099F09603D55
:1022800077408105910520F6C111C2CF0E942E0C26
:10229000A89580914C038770833059F7C1E08091F5
:1022A0004D03893131F3C0E0E4CFCF93DF93CDB755
:1022B000DEB768970FB6F894DEBF0FBECDBF0E94A1
:1022C000DA10811104C062E084E00E94240480914D
:1022D000D00182FF04C061E082E00E94240460918A
:1022E000AC017091AD01CE010D960E949A066091ED
:1022F0009D0170919E01CE0101960E949A06BE0139
:102300006F5F7F4FCE0107960E941C07CE01079694
:102310000E947606BE01635F7F4F0E94E406BC0107
:10232000CE0143960E941C07CE0107960E94170714
:10233000CE0101960E941707CE010D960E94170745
:102340006B897C8989E792E00E94C50A0E94A10AF4
:1023500082EA91E00E94AC1961E070E0811102C054
:1023600070E060E08CED92E00E9463040E94A10A9C
:1023700080919D0190919E01029784F083EA91E003
:102380000E94AC1961E070E0811102C070E060E071
:102390008BEB92E00E9463040E94A10A80919D0150
:1023A00090919E01039784F084EA91E00E94AC1919
:1023B00061E070E0811102C070E060E08AE992E0C3
:1023C0000E9463040E94A10A61E088E00E940B0160
:1023D000CE0143960E94170768960FB6F894DEBFA9
:1023E0000FBECDBFDF91CF9108958F929F92AF9294
:1023F000BF92CF92DF92EF92FF924B015C010E945D
:102400002E026B017C010E942E026C197D098E093F
:102410009F09681579058A059B0530F4A8950E94E7
:102420007C040E942E0CEFCFFF90EF90DF90CF90B6
:10243000BF90AF909F908F900895CF93DF93EB0163
:102440008235910519F183359105C9F181359105E1
:1024500009F04EC064E170E080E090E00E94F51168
:10246000BE018CED92E00E9463040E94A10A6C2FD1
:102470008EE00E940B018C2F81708093BA016C2F2B
:1024800082EA91E0DF91CF910C94C41964E170E08D
:1024900080E090E00E94F511BE018BEB92E00E947B
:1024A00063040E94A10A6C2F8FE00E940B018C2F05
:1024B00081708093B9016C2F83EA91E0E3CF64E1EE
:1024C00070E080E090E00E94F511BE018AE992E0A0
:1024D0000E9463040E94A10A6C2F80E10E940B01FC
:1024E0008C2F81708093B8016C2F84EA91E0CACF61
:1024F000DF91CF910895CF92DF92EF92FF920F93E9
:102500001F93CF93DF9389E193E00E948C03F82E11
:102510008BE093E00E948C03182F8DEF92E00E94D5
:102520008C03C82FE090210300911303D091050381
:102530008091AC019091AD01892B09F5FF2049F004
:102540006091BA0181E0682770E081E590E00E9427
:102550001D12112349F06091B90181E0682770E0F4
:1025600082E590E00E941D12CC2349F06091B801F1
:1025700081E0682770E083E590E00E941D12809161
:10258000AC019091AD01019739F5FF2059F0E0FCC5
:1025900009C06091BA0181E0682770E081E590E0B0
:1025A0000E941D12112359F000FD09C06091B9016C
:1025B00081E0682770E082E590E00E941D12CC2344
:1025C00059F0D0FD09C06091B80181E0682770E042
:1025D00083E590E00E941D12C090A801D090A9014F
:1025E000E090AA01F090AB018091BA01882309F430
:1025F00098C020E030E0A901C701B6010E94B01ADE
:102600001816DCF420E030E040E85FE3C701B601D3
:102610000E940D1A6093A8017093A9018093AA01EA
:102620009093AB010E947A1A83E00E94790165E0E1
:1026300070E080E090E00E94FB01C090A401D09087
:10264000A501E090A601F090A7018091B90188232F
:1026500009F47AC020E030E0A901C701B6010E9468
:10266000B01A1816DCF420E030E040E85FE3C70160
:10267000B6010E940D1A6093A4017093A501809386
:10268000A6019093A7010E947A1A85E00E94790121
:1026900065E070E080E090E00E94FB01C090A00146
:1026A000D090A101E090A201F090A3018091B80127
:1026B000882309F45CC020E030E0A901C701B6011D
:1026C0000E94B01A18160CF05CC020E030E040E820
:1026D0005FE3C701B6010E940D1A6093A0017093D9
:1026E000A1018093A2019093A3010E947A1A86E02F
:1026F0000E94790165E070E080E090E0DF91CF9189
:102700001F910F91FF90EF90DF90CF900C94FB0101
:1027100020E030E040E85FE3C701B6010E940E1AF6
:10272000DCCF20E030E046E153E4C701B6010E946F
:102730001F1987FF82CF20E030E040E85FE3C70148
:10274000B6010E940E1A66CF20E030E046E153E465
:10275000C701B6010E941F1987FFA0CF20E030E01B
:1027600040E85FE3C701B6010E940E1A84CF20E063
:1027700030E046E153E4C701B6010E941F1987FD0E
:10278000C7CFDF91CF911F910F91FF90EF90DF9016
:10279000CF9008952BE043E06FEF80E00E94D200DD
:1027A00061E271E00E94C50A0E949A0A2CE043E0AF
:1027B0006FEF80E00E94D2006DE171E00E94C50AD7
:1027C0000E949A0A62E370E080E090E00E94F511B6
:1027D0004AE651E063E081E50E94FA0A62E370E0B4
:1027E00080E090E00E94F51180919D0190919E0102
:1027F000029764F041E751E063E082E50E94FA0A43
:1028000062E370E080E090E00E94F51180919D010C
:1028100090919E01039734F048E751E063E083E52F
:102820000E94FA0A62E370E080E090E00E94F511F5
:102830004FE751E068E187E10C94FA0ACF93DF9308
:10284000C7E2D3E08B81877080658B838C81887130
:10285000846C8C8388E0EEEAF1E0AEE2B3E00190B4
:102860000D928A95E1F783E090E0988B8F87109224
:102870009F0120E044E06FEF80E00E94D2000E94C0
:102880009A0A2FE043E06FEF80E00E94D2006CE8EC
:1028900071E00E94C50A8B81877080618B838C8177
:1028A0008F71806C8C8381E08F831886CE010E94AB
:1028B0009A0A8FE00E94A7104CE851E062E18FEF86
:1028C0000E94FA0A26E043E06FEF80E00E94D20007
:1028D0006091D9010E9470040E949A0A86E00E94C9
:1028E000A710DF91CF910C94CA13CF938091D6019A
:1028F00081FD1FC00E941E148091D60181608093CB
:10290000D601C4E02AE143E06FEF80E00E94D200EC
:1029100062E00E9470040E949A0A8BE10E94A71054
:10292000811102C0C15071F78091D60182608093FD
:10293000D601CF9108951F920F920FB60F921124D6
:102940002F933F938F939F93AF93BF938091BE013B
:102950009091BF01A091C001B091C1013091BD0122
:1029600026E0230F2D3758F50296A11DB11D2093A7
:10297000BD018093BE019093BF01A093C001B093AD
:10298000C1018091C2019091C301A091C401B09195
:10299000C5010196A11DB11D8093C2019093C30191
:1029A000A093C401B093C501BF91AF919F918F9146
:1029B0003F912F910F900FBE0F901F90189529E80F
:1029C000230F0396A11DB11DD2CF1F920F920FB6F8
:1029D0000F9211242F933F934F935F936F937F93A5
:1029E0008F939F93AF93BF93EF93FF93E091370142
:1029F000F09138010995FF91EF91BF91AF919F91AF
:102A00008F917F916F915F914F913F912F910F9097
:102A10000FBE0F901F9018951F920F920FB60F9236
:102A200011242F933F934F935F936F937F938F93D3
:102A30009F93AF93BF93EF93FF93E0913501F09194
:102A400036010995FF91EF91BF91AF919F918F91C1
:102A50007F916F915F914F913F912F910F900FBE9A
:102A60000F901F9018951F920F920FB60F9211247E
:102A70002F933F934F935F936F937F938F939F9386
:102A8000AF93BF93EF93FF938CED91E00E94AF0261
:102A9000FF91EF91BF91AF919F918F917F916F9136
:102AA0005F914F913F912F910F900FBE0F901F900C
:102AB00018951F920F920FB60F9211242F938F9398
:102AC0009F93EF93FF93E091EC01F091ED018081F2
:102AD000E091F201F091F30182FD1BC090818091A1
:102AE000F5018F5F8F732091F601821741F0E0911D
:102AF000F501F0E0E452FE4F958F8093F501FF91D0
:102B0000EF919F918F912F910F900FBE0F901F907B
:102B100018958081F4CF1F920F920FB60F92112457
:102B20000F900FBE0F901F901895CF93DF93FC016D
:102B3000108211821282148215821682DC0117968D
:102B40008AE1ED0119928A95E9F782E08383DF91AA
:102B5000CF910895CF93ECEDF1E01382128288EECD
:102B600093E0A0E0B0E084839583A683B78383E4F9
:102B700091E09183808385EC90E09587848784EC55
:102B800090E09787868780EC90E0918B808B81EC3A
:102B900090E0938B828B82EC90E0958B848B86EC1B
:102BA00090E0978B868B118E128E138E148EE8EB2D
:102BB000F4E080E5858381E0868388E0808385E694
:102BC0009FE192838183E3EBF4E08AE0808389E6EE
:102BD00093E0928381838FB7F894138214828FBF1E
:102BE00088E493E00E94951587E293E00E94951592
:102BF000E9E1F3E025E531E031832083128213829D
:102C0000148215828AE090E097838683108611866D
:102C1000EBE0F3E031832083128213821482158269
:102C20009783868310861186EDEFF2E0318320834F
:102C300012821382148215829783868310861186EE
:102C40008CED92E00E949515ECEDF2E081E5868333
:102C5000C2E0C5838BEB92E00E949515EBEBF2E0AE
:102C600082E58683C5838AE992E00E949515EAE9A8
:102C7000F2E083E58683C58389E792E00E9495159B
:102C8000E9E7F2E087E1868388E18583CF910895C3
:102C9000789484B5826084BD84B5816084BD85B537
:102CA000826085BD85B5816085BD80916E00816043
:102CB00080936E00109281008091810082608093E9
:102CC00081008091810081608093810080918000EB
:102CD0008160809380008091B10084608093B10016
:102CE0008091B00081608093B00080917A00846010
:102CF00080937A0080917A00826080937A0080913C
:102D00007A008E7F80937A0080917A008068809329
:102D10007A001092C100A89580E090E0892B11F014
:102D20000E940000E091EC01F091ED0182E08083CF
:102D3000E091E801F091E9011082E091EA01F0915F
:102D4000EB0187E680831092F401E091F001F091AD
:102D5000F10186E08083E091EE01F091EF01808146
:102D600080618083E091EE01F091EF0180818860C5
:102D70008083E091EE01F091EF0180818068808393
:102D8000E091EE01F091EF0180818F7D8083C0E1C1
:102D9000D0E0F12CFE01F595E795E558FF4FE49161
:102DA000C0FF7AC0EF70E83008F078C0F0E0E55876
:102DB000FF4FF4906F2D8CED91E00E94D10221968F
:102DC000C23FD10539F7C4E7D0E0FE016491662324
:102DD00039F08CED91E00E94D1022196892BA9F760
:102DE00042E050E06AE871E08CED91E00E943B0225
:102DF0008091D6018D7F8093D6010E94750941E0B4
:102E000050E063E071E085ED91E00E949C1948E09C
:102E100050E06BE171E08EEA91E00E949C196FEF47
:102E200081E090E00E94C4198091D1018F78809355
:102E3000D1011092C7011092C60180E391E00E9477
:102E40009A0485E794E19093B7018093B6010E94BC
:102E50002E020E942E020E947C040E942E0C809161
:102E6000D00182FB882780F9A895882391F30E94DE
:102E70005511A895C0E0D0E0A8950E947C040E945E
:102E80002E0C0E947B122097B9F30E94A502882382
:102E900099F30E940000F0CFE29584CF1BEF1E0F44
:102EA00000E06F2D8CED91E00E94D1020F5F0117C1
:102EB000C0F385CF0F931F93CF93DF93823091059B
:102EC00010F482E090E0E091C104F091C20430E09F
:102ED00020E0B0E0A0E0309799F42115310509F425
:102EE0004AC0281B390B24303105D8F58A819B81D3
:102EF0006115710589F1FB0193838283FE0111C085
:102F0000408151810281138148175907E0F0481729
:102F1000590799F4109761F012960C931297139633
:102F20001C933296CF01DF91CF911F910F9108959D
:102F30000093C1041093C204F4CF2115310551F060
:102F40004217530738F0A901DB019A01BD01DF01E7
:102F5000F801C1CFEF01F9CF9093C2048093C1046F
:102F6000CDCFFE01E20FF31F8193919322503109DF
:102F700039832883D7CF2091BF043091C004232BFD
:102F800041F420913B0130913C013093C0042093E7
:102F9000BF042091390130913A012115310541F4E6
:102FA0002DB73EB740913D0150913E01241B350B9A
:102FB000E091BF04F091C004E217F307A0F42E1BC8
:102FC0003F0B2817390778F0AC014E5F5F4F24178D
:102FD000350748F04E0F5F1F5093C0044093BF0465
:102FE000819391939FCFF0E0E0E09CCFCF93DF936C
:102FF0000097E9F0FC01329713821282A091C1047C
:10300000B091C204ED0130E020E01097A1F42081DE
:103010003181820F931F2091BF043091C004281783
:10302000390709F061C0F093C004E093BF04DF9159
:10303000CF910895EA01CE17DF07E8F54A815B8159
:103040009E0141155105B1F7E901FB83EA834991DE
:103050005991C40FD51FEC17FD0761F48081918150
:103060000296840F951FE901998388838281938159
:103070009B838A83F0E0E0E012968D919C911397F8
:103080000097B9F52D913C911197CD010296820FD1
:10309000931F2091BF043091C0042817390739F6D7
:1030A000309751F51092C2041092C104B093C0043D
:1030B000A093BF04BCCFD383C28340815181840FCE
:1030C000951FC817D90761F44E5F5F4F88819981BA
:1030D000480F591F518340838A819B819383828348
:1030E0002115310509F0B0CFF093C204E093C1047B
:1030F0009ECFFD01DC01C0CF13821282D7CFFC012D
:1031000088279927E89421912032E9F3293010F09B
:103110002E30C8F32B3241F02D3239F4689404C0BC
:103120000E94E418820F911D219120532A30C0F390
:103130001EF4909581959F4F08951F93FC01992748
:103140008827BC01E89411911032E9F3193010F08E
:103150001E30C8F31B3251F01D3249F4689406C08A
:103160000E94CF18610F711D811D911D1191105387
:103170001A30B0F33EF490958095709561957F4F2D
:103180008F4F9F4F1F910895BB274A3031F49923E9
:1031900022F4BDE2909581959F4F0C94ED18592F24
:1031A000482F372F262F660F771F881F991F660F0E
:1031B000771F881F991F620F731F841F951F660F4B
:1031C000771F881F991F08957AE0979F902D879FFA
:1031D000802D910D11240895BB27FB015527AA27A7
:1031E000880F991FAA1FA41710F0A41B8395505194
:1031F000B9F7A05DAA3308F0A95DA193009779F70C
:10320000B111B1931192CB010C940F1991110C943F
:103210004819803219F089508550C8F70895DC01AB
:10322000FC01672F71917723E1F7329704C07C91FD
:103230006D9370836291AE17BF07C8F308950E9423
:10324000241908F481E00895990F0008550FAA0B7E
:10325000E0E8FEEF16161706E807F907C0F01216A9
:103260001306E407F50798F0621B730B840B950BAC
:1032700039F40A2661F0232B242B252B21F4089501
:103280000A2609F4A140A6958FEF811D811D08959E
:1032900099278827089597F99F6780E870E060E094
:1032A00008959FEF80EC089500240A9416161706DF
:1032B00018060906089500240A9412161306140627
:1032C00005060895092E0394000C11F4882352F08A
:1032D000BB0F40F4BF2B11F460FF04C06F5F7F4F42
:1032E0008F4F9F4F089557FD9058440F551F59F029
:1032F0005F3F71F04795880F97FB991F61F09F3FE3
:1033000079F087950895121613061406551FF2CF0B
:103310004695F1DF08C0161617061806991FF1CF5B
:1033200086957105610508940895E894BB27662782
:103330007727CB0197F90895DC01CB01FC01F999BE
:10334000FECF06C0F2BDE1BDF89A319600B40D92F1
:1033500041505040B8F70895F999FECF92BD81BD14
:10336000F89A992780B50895DC01A40FB51F415044
:10337000504048F0CB01840F951F2E910E94C51933
:1033800041505040D0F70895262FF999FECF92BDB5
:1033900081BDF89A019700B4021639F01FBA20BD1A
:1033A0000FB6F894FA9AF99A0FBE08952F923F92A9
:1033B0004F925F926F927F928F929F92AF92BF9245
:1033C000CF92DF92EF92FF920F931F93CF93DF93F1
:1033D000CDB7DEB7CA1BDB0B0FB6F894DEBF0FBE4E
:1033E000CDBF09942A88398848885F846E847D849B
:1033F0008C849B84AA84B984C884DF80EE80FD809D
:103400000C811B81AA81B981CE0FD11D0FB6F89412
:10341000DEBF0FBECDBFED0108955058BB27AA27D0
:103420000E94251A0C9462190E94541938F00E94C7
:103430005B1920F039F49F3F19F426F40C945119CC
:103440000EF4E095E7FB0C944B19E92F0E947319D9
:1034500058F3BA17620773078407950720F079F4C9
:10346000A6F50C9495190EF4E0950B2EBA2FA02D0D
:103470000B01B90190010C01CA01A0011124FF2721
:10348000591B99F0593F50F4503E68F11A16F0401C
:10349000A22F232F342F4427585FF3CF469537951B
:1034A0002795A795F0405395C9F77EF41F16BA0BE0
:1034B000620B730B840BBAF09150A1F0FF0FBB1F8E
:1034C000661F771F881FC2F70EC0BA0F621F731FD7
:1034D000841F48F4879577956795B795F7959E3F34
:1034E00008F0B0CF9395880F08F09927EE0F9795C5
:1034F000879508950E94811A6894B1110C949619C9
:1035000008950E947B1988F09F5798F0B92F99274A
:10351000B751B0F0E1F0660F771F881F991F1AF0BE
:10352000BA95C9F714C0B13091F00E949519B1E075
:1035300008950C949519672F782F8827B85F39F074
:10354000B93FCCF3869577956795B395D9F73EF457
:1035500090958095709561957F4F8F4F9F4F0895FF
:103560000E94241908F48FEF089597FB072E16F494
:10357000009407D077FD09D00E94C91A07FC05D036
:103580003EF4909581959F4F0895709561957F4F7A
:103590000895AA1BBB1B51E107C0AA1FBB1FA6179A
:1035A000B70710F0A61BB70B881F991F5A95A9F7EC
:1035B00080959095BC01CD010895EE0FFF1F0590F9
:1035C000F491E02D0994B0E0A0E0E9EEFAE10C946A
:1035D000D8198C01009751F4CB010E945A178C0125
:1035E000C801CDB7DEB7E0E10C94F419FC01E60F99
:1035F000F71F9C0122503109E217F30708F49DC020
:10360000D901CD91DC911197C617D70798F0C53035
:10361000D10530F3CE0104978617970708F3C61B30
:10362000D70B2297C193D1936D937C93CF010E94C6
:10363000F617D6CF5B01AC1ABD0A4C018C0E9D1E4D
:10364000A091C104B091C204512C412CF12CE12C69
:10365000109731F58091BF049091C00488159905A9
:1036600009F05CC04616570608F058C08091390131
:1036700090913A01009741F48DB79EB740913D017A
:1036800050913E01841B950BE817F90708F055C0CF
:10369000F093C004E093BF04F90171836083A0CF6D
:1036A0008D919C91119712966C90129713967C9025
:1036B0001397A815B90559F56C0142E0C40ED11C49
:1036C000CA14DB0420F1AC014A195B09DA01129635
:1036D000159780F06282738251834083D9016D9384
:1036E0007C93E114F10471F0D7011396FC93EE93EF
:1036F000129776CF22968C0F9D1FF90191838083BC
:10370000F301EFCFF093C204E093C10469CF4816F0
:10371000590608F42C017D01D3019ACFCB010E94F8
:103720005A177C01009749F0AE01B8010E94AD1B09
:10373000C8010E94F617870153CF10E000E050CF78
:10374000FB01DC0104C08D910190801921F44150EE
:103750005040C8F7881B990B0895FB01DC0102C09B
:1037600001900D9241505040D8F70895FB01DC01C3
:1037700001900D920020E1F70895FB01DC0141501A
:10378000504048F001900D920020C9F701C01D92F1
:1037900041505040E0F70895AEE0B0E0E2EDFBE1CB
:1037A0000C94E61985E08C838B899C899A838983A4
:1037B000AE01495E5F4F6D897E89CE0101960E9400
:1037C000701D2E96E2E00C94021A20FD09C0FC0147
:1037D00023FD05C022FF02C07383628351834083AF
:1037E000089544FD17C046FD1DC0DB01FC01AA0F72
:1037F000BB1FEE1FFF1F1094D1F76A0F7B1F8E1F98
:103800009F1F660F771F881F991F620F711D811DF3
:10381000911D089533E0660F771F881F991F31505F
:10382000D1F7F3CF34E0F7CF0F931F93CF93DF930C
:103830008C01C8010E94801EEC0197FD08C00E9407
:103840000619892BB1F7B801CE010E94BC1ECE012A
:10385000DF91CF911F910F9108958F929F92AF9218
:10386000BF92EF92FF920F931F93CF93DF938C0140
:10387000D62F7A01B22E0E94801E9C0133272B3254
:10388000310529F02D323105A9F46894B7F8D150EB
:1038900061F480E0DF91CF911F910F91FF90EF9045
:1038A000BF90AF909F908F900895C8010E94801E96
:1038B00097FDEFCFCB2DCD7F2B2D2073F9F48033E7
:1038C000E9F4AA24AA94AD0E89F0C8010E94801ED2
:1038D00097FD0CC0282F2F7D283561F4C264D2508B
:1038E00029F0C8010E94801E97FF08C0812C912CEE
:1038F00054011BC0B6FE2BC0C260DA2D812C912C66
:10390000540120ED280F283028F1C4FD09C02A30C9
:1039100008F1C6FF05C02F7D3FEE320F3630C8F0EC
:10392000B8010E94BC1EC1FFB4CFC7FF08C0B0944D
:10393000A09490948094811C911CA11CB11C2C2FEC
:10394000B501A401C7010E94E51B81E0A3CFC261BC
:10395000D4CF27504C2FC501B4010E94F11B4B015D
:103960005C01C260D15009F3C8010E94801E97FF1C
:10397000C8CFD9CFA0E2B0E0E0ECFCE10C94DB19B9
:103980005C01962E7A01CE0101966C0180E2F6016F
:1039900011928A95E9F7F501B381890130E020E0C1
:1039A000712C812CA0E041E050E0F801B3FD85913D
:1039B000B3FF8191982F8F01811107C010E000E0C3
:1039C000C801A096EDE00C94F7198E3519F4211575
:1039D000310541F1A21713064CF48D3549F18D32B2
:1039E00029F4811006C0882483941DC0882009F41E
:1039F00064C0E92FE695E695E695EC0DFD2DF11DE9
:103A0000892F8770BA0101C0660F8A95EAF7808115
:103A1000682B6083791651F0971510F49F5FE9CFFA
:103A20009150E7CFA1E02F5F3F4FBFCF812CFBCF5D
:103A3000882019F08E8180628E83AA2359F0F601C6
:103A40009E012F5D3F4F8081809580833196E217E4
:103A5000F307C9F788248394C5010E94801E97FD4F
:103A600016C0E82FE695E695E695EC0DFD2DF11DC7
:103A7000208130E0AC014770552702C0359527956D
:103A80004A95E2F720FD06C0B5010E94BC1E8820C1
:103A900069F094CFE114F10429F0F7018083C701A4
:103AA00001967C019A94812C9110D6CFE114F104F7
:103AB00009F486CFF701108283CFE82FE695E695CB
:103AC000E695EC0DFD2DF11D982F9770BA0101C000
:103AD000660F9A95EAF79081692B6083782EA3CFC1
:103AE000B0E0A0E0E6E7FDE10C94D9196C01EB0130
:103AF0005A01FC0117821682512CF601E380FE0167
:103B0000E3FC8591E3FE8191182FEF018823E9F012
:103B100090E00E940619892B21F0C6010E94141C16
:103B2000ECCF153241F4FE01E3FC1591E3FE119157
:103B3000EF01153269F4C6010E94801E97FD8EC008
:103B40001817D9F2B6010E94BC1E852D90E08AC0DC
:103B500000E01A3231F4E3FC1591E3FE1191EF011C
:103B600001E0F12C20ED210F2A3048F101FF37C090
:103B7000FF2059F31836B1F11C3609F43DC011236A
:103B800021F3612F70E088E690E00E94751E892B7A
:103B9000E1F2912C812C00FD06C0F501808091801E
:103BA000C50102965C011E3679F5F6014681578102
:103BB00070E060E0202FC4010E94E51B9ECF0260F0
:103BC0006F2D70E090E080E040E20E94F11BF62E45
:103BD000FE01E3FC1591E3FE1191EF01C3CFFF2439
:103BE000FA94C8CFFE01E3FC1591E3FE1191EF01B9
:103BF000183609F0C4CF08600460FE01E3FC15919B
:103C0000E3FE1191EF01BBCF1336C1F401FD02C0F9
:103C1000FF24F394C6010E94801E97FD1FC08114EB
:103C2000910429F0F4018083C40101964C01FA94B7
:103C3000F110F0CF00FD61CF53945FCF1B35B9F485
:103C40009E01A4016F2DC6010E94BA1CEC01892BB4
:103C500089F7F6018381807309F477CF8FEF9FEFA7
:103C6000511073CFCDB7DEB7EFE00C94F519C60154
:103C70000E94141C97FDF2CF1F36A9F130F41436C0
:103C800041F0193639F0006405C01337B9F0153723
:103C9000D1F70062202FA4016F2DC6010E942D1CB8
:103CA0008111C8CFD6CF8114910429F0F40160822C
:103CB000C40101964C01FA94FF2071F0C6010E94E4
:103CC000801E3C0197FD08C00E940619892B59F3FC
:103CD000B601C3010E94BC1E8114910409F4AACF4D
:103CE000F4011082A7CF0061D5CFFC010590061624
:103CF00021F00020D9F7C00108953197CF01089530
:103D0000CF93DF93EC012B8120FF1AC026FF0CC05C
:103D10002F7B2B838E819F8101969F838E838A8147
:103D200090E0DF91CF91089522FF18C0E881F981DA
:103D30008081082E000C990B009729F420622B83B8
:103D40008FEF9FEFEECF3196F983E8832E813F818D
:103D50002F5F3F4F3F832E839927E3CFEA85FB8573
:103D6000099597FFF3CF2B81019621F080E2822BFA
:103D70008B83E6CF80E1FBCFFB01238120FF11C0C5
:103D800026FD0FC08F3F980771F082832F7D20643E
:103D90002383268137812150310937832683992750
:0C3DA00008958FEF9FEF0895F894FFCF77
:103DAC00FFFFFF00FCE1A8A8110B3105B20A0205C8
:103DBC00F004E6042C0B4B05FFAF07C604312E397B
:103DCC000052656C6179204163747561746F720087
:103DDC005509A308FF3A023A020000C30480000010
:103DEC00000000D1023B0268021E03990277028B8D
:103DFC000200000000480375013A00322E332E31C8
:103E0C000025643A2564004F4B0052656C61793192
:103E1C000052656C6179320052656C6179330052E5
:0E3E2C00656C61793A4D6F6465000D0A000007
:1078000011E0A0E0B1E0E0EFFFE702C005900D92CB
:10781000A630B107D9F721E0A6E0B1E001C01D9282
:10782000AD34B207E1F7CDB7DEB72997DEBFCDBFE4
:10783000112484B78093270114BE88E180936000EF
:1078400089E280936000259A86E020E295B1922734
:1078500095B93FE748E391E0315040409040E1F76F
:1078600000C00000815091F78091270181FD16C072
:107870008EE284B981E58CBD81E08DBD412C512C17
:107880002224239433243394AA24AA94BA2C78E093
:10789000972ECC24C394E3E0DE2E40C182E0809397
:1078A000C00088E18093C10086E08093C20080E13F
:1078B0008093C400E12CF12CC12CD12CAA24AA94D1
:1078C000BA2C01E0A8952BD2813461F428D28987A3
:1078D00037D38985823821F0813811F485E64FC08D
:1078E00083E04DC0823411F484E103C0853419F47F
:1078F00085E032D35FC0853541F411D2E82E0FD236
:10790000F12CF82AEE0CFF1C54C0863521F484E0DB
:1079100023D380E034C08436E1F401D200D2882E33
:10792000FED1C80CD11C912C981480F4F8D1182FDA
:10793000F6D1F701E90DF11D212F30E0382B0901B7
:1079400007BFE895112493949394EECFC701A8D173
:1079500030C0843761F4E3D1E2D1182FE0D1F0D206
:10796000F70185917F01E5D21150D1F724C0853709
:1079700041F4E6D28EE1DDD285E9DBD28FE0D9D2C7
:1079800019C08135B1F4BA82A982BC82AB82C6012A
:1079900034E0969587953A95E1F79E838D83C601ED
:1079A00091D198878F83CE010196DDD2C9D211E0A3
:1079B00002C0C6D210E080E1BCD2112309F482CF0C
:1079C00057CF43E050E060E070E089E291E0EED212
:1079D00048E050E06BE171E0CE010196E7D22998D2
:1079E0002A9A63E083E2D4D16CE485E2D1D167E2E4
:1079F00086E2CED163E780E5CBD164E08DE3C8D1E8
:107A000061E082E2C5D161E081E2C2D161E08CE354
:107A1000BFD121E041E060E070E086E08CD18732A8
:107A200009F028C180912A01809328018FEF80936B
:107A30002A0180932B018093080163E584E2A8D199
:107A400043E26AE087E05FD161E08EEFC0D110923F
:107A500008016FE584E29CD180912A018F3F09F4EF
:107A600009C18091290181508E3F08F05AC030929F
:107A70000D0110920E0143EC62E18FE044D160E011
:107A80008FE0A5D18D819E8124E0880F991F2A95D2
:107A9000E1F718D198878F83FE013196ADE0B1E010
:107AA000892D01900D928A95E1F7D0921601C0922E
:107AB000150144EC62E580E026D163E081E087D1E6
:107AC000882309F4D7C048E050E063E371E0CE01B9
:107AD00001965FD2892B09F4CDC080913701909136
:107AE0003801009709F045C08091390190913A0121
:107AF0008A379A4D09F041C0809133019091340149
:107B00008130910571F500E010E06FEFC8015ED2A1
:107B10000F5F1F4F011524E01207B9F7F999FECF47
:107B200050CF43E262E083E0EED063E084E04FD1E7
:107B3000882309F496CF80912F01869586958695A6
:107B4000E3E3F1E060E0815048F02191660F962F69
:107B5000990F990F690F6053620FF5CF80E090E0A5
:107B600006C0029782309105C8F6609135012ED289
:107B7000D5CF8038974008F07DC0E3E3F1E0DE0127
:107B80001196892D01900D928A95E1F7EF80F88486
:107B9000B886AF82CE010196E6D16D807E80898164
:107BA0009A8190930E0180930D018B819C8190931B
:107BB000100180930F0183010150110910931201EC
:107BC0000093110144EC62E382E09DD063E083E026
:107BD000FED0882309F44BCF46E050E063E371E028
:107BE0008DE091E0D6D1892BD1F6C3018150904F21
:107BF000282F22952077822E40E050E0622F70E0FF
:107C0000DA01A45DBE4FFA01E60FF71F1E962C9114
:107C10001E9730E0322F22271D96AC912A2B0901A6
:107C200027BEE89511244E5F5F4F4031510541F763
:107C3000811006C044E0880F991F4A95E1F730D0C3
:107C40000115110511F03801AACFF886EF828D8158
:107C50009E8134E0880F991F3A95E1F733D08E1555
:107C60009F0521F01E821D8218861F82CE0101967B
:107C70007AD154CF8D819E8124E0880F991F2A9557
:107C8000E1F720D02F8138858217930709F046CF7E
:107C90001CBCA89580912701282EF20109953ECFA2
:107CA00023E0FC0127BFE89507B600FCFDCF25E0E7
:107CB000FC0127BFE89507B600FCFDCF81E187BF37
:107CC000E8950895BC01E0E0F0E08FEF9FEFE61744
:107CD000F707C0F4E11528E7F207A0F42591822701
:107CE00048E0DC01B695A7959C01217033273195BA
:107CF000219531092170307AC9018A279B2741508B
:107D000081F7E5CF089590912901E6E0F1E09183B4
:107D100090839FEF96838583448363830895809146
:107D2000C00087FFFCCF8091C00084FD01C0A895F2
:107D30008091C60008952A989AE19A95F1F700C0BB
:107D40008EBD0DB407FEFDCF8EB59FEF4150D0F034
:107D5000222369F09EBD0DB407FEFDCF8EB56115DF
:107D60007105A1F3DB018C936F5F7F4FEFCFFB01B8
:107D70003196DB018C918EBD0DB407FEFDCF8EB523
:107D8000BF01E4CF2A9ABAE1BA95F1F700C008958D
:107D9000CF93DF931F92CDB7DEB7698320E041E038
:107DA000BE016F5F7F4FC7DF0F90DF91CF910895C6
:107DB00020E040E060E070E082EEBDDF20E040E0E7
:107DC00060E070E081EEB7DF60E787E2E1CFFF922D
:107DD0000F931F93CF93DF93F82ED62FC0910901F5
:107DE000C695C695C695C95F10912A0129986EE07F
:107DF00080E2CEDF1093000120E045E060E071E01A
:107E00008AE299DF20E045E060E071E080E393DF03
:107E100020E04C2F66E071E080EA8DDF299A8AE04D
:107E20008A95F1F700C020E040E060E070E08FEF5D
:107E300082DF8073C1F32998BBDF6FE080E2A8DFA7
:107E4000609129018AE2A4DF299A0FEF1FEFA8951C
:107E500021E041E060E070E087E16DDF80FF02C07B
:107E60008FEF4BC021E041E060E070E080E663DF2F
:107E7000C82F813208F0C0E021E04C2F6CE271E0A5
:107E800081E659DF95DF4C2F50E020912F01269598
:107E90002695269530E0295F3F4F4217530701F79B
:107EA00090912E01809129019813DACF80913101B0
:107EB000909130019770933001F58830F1F4209162
:107EC0002A0190912801291302C09F3FB1F420910B
:107ED0002D01291304C090932A018EEF0EC030911A
:107EE000330191E0930F9093330140912B013417AC
:107EF00020F490932B0120932A0191E08F1190E0C0
:107F000088E08A95F1F70150110921F4892FD111E8
:107F100005C009C0992309F49ACF04C0D150992310
:107F200009F45CCF81E0DF91CF911F910F91FF9019
:107F300008959091C00095FFFCCF8093C6000895EE
:107F4000EEDE803239F088E18093600088E0809333
:107F50006000FFCF84E1EDCFCF93C82FE0DEC150AA
:107F6000E9F7CF91EDCF0F931F93CF93DF938C0160
:107F7000CBE1D1E0F80161918F01CE0127D02196AC
:107F8000C332F1E0DF07B1F7DF91CF911F910F917D
:107F90000895FB01DC0104C08D910190801921F44A
:107FA00041505040C8F7881B990B0895DC01CB0164
:107FB000FC01F999FECF06C0F2BDE1BDF89A3196F9
:107FC00000B40D9241505040B8F70895262FF9990A
:107FD000FECF92BD81BDF89A019700B4021639F028
:107FE0001FBA20BD0FB6F894FA9AF99A0FBE0895F9
:067FF00000FCE1A8A8005E
:040000030000780081
:00000001FF
